{
  "_format": "hh-sol-artifact-1",
  "contractName": "LandRegistry",
  "sourceName": "contracts/LandRegistry.sol",
  "abi": [
    {
      "inputs": [],
      "stateMutability": "nonpayable",
      "type": "constructor"
    },
    {
      "inputs": [
        {
          "internalType": "address",
          "name": "owner",
          "type": "address"
        }
      ],
      "name": "OwnableInvalidOwner",
      "type": "error"
    },
    {
      "inputs": [
        {
          "internalType": "address",
          "name": "account",
          "type": "address"
        }
      ],
      "name": "OwnableUnauthorizedAccount",
      "type": "error"
    },
    {
      "anonymous": false,
      "inputs": [
        {
          "indexed": true,
          "internalType": "uint256",
          "name": "landId",
          "type": "uint256"
        },
        {
          "indexed": true,
          "internalType": "address",
          "name": "owner",
          "type": "address"
        },
        {
          "indexed": false,
          "internalType": "string",
          "name": "location",
          "type": "string"
        }
      ],
      "name": "LandRegistered",
      "type": "event"
    },
    {
      "anonymous": false,
      "inputs": [
        {
          "indexed": true,
          "internalType": "uint256",
          "name": "landId",
          "type": "uint256"
        },
        {
          "indexed": false,
          "internalType": "bool",
          "name": "verified",
          "type": "bool"
        }
      ],
      "name": "LandVerified",
      "type": "event"
    },
    {
      "anonymous": false,
      "inputs": [
        {
          "indexed": true,
          "internalType": "address",
          "name": "previousOwner",
          "type": "address"
        },
        {
          "indexed": true,
          "internalType": "address",
          "name": "newOwner",
          "type": "address"
        }
      ],
      "name": "OwnershipTransferred",
      "type": "event"
    },
    {
      "anonymous": false,
      "inputs": [
        {
          "indexed": true,
          "internalType": "uint256",
          "name": "landId",
          "type": "uint256"
        },
        {
          "indexed": true,
          "internalType": "address",
          "name": "newOwner",
          "type": "address"
        }
      ],
      "name": "OwnershipTransferred",
      "type": "event"
    },
    {
      "inputs": [
        {
          "internalType": "address",
          "name": "_authority",
          "type": "address"
        }
      ],
      "name": "addVerifiedAuthority",
      "outputs": [],
      "stateMutability": "nonpayable",
      "type": "function"
    },
    {
      "inputs": [
        {
          "internalType": "uint256",
          "name": "_landId",
          "type": "uint256"
        }
      ],
      "name": "getLandDetails",
      "outputs": [
        {
          "internalType": "address",
          "name": "owner",
          "type": "address"
        },
        {
          "internalType": "string",
          "name": "location",
          "type": "string"
        },
        {
          "internalType": "string",
          "name": "documentHash",
          "type": "string"
        },
        {
          "internalType": "bool",
          "name": "verified",
          "type": "bool"
        },
        {
          "internalType": "address[]",
          "name": "ownershipHistory",
          "type": "address[]"
        }
      ],
      "stateMutability": "view",
      "type": "function"
    },
    {
      "inputs": [],
      "name": "landCounter",
      "outputs": [
        {
          "internalType": "uint256",
          "name": "",
          "type": "uint256"
        }
      ],
      "stateMutability": "view",
      "type": "function"
    },
    {
      "inputs": [
        {
          "internalType": "uint256",
          "name": "",
          "type": "uint256"
        }
      ],
      "name": "lands",
      "outputs": [
        {
          "internalType": "uint256",
          "name": "id",
          "type": "uint256"
        },
        {
          "internalType": "address",
          "name": "owner",
          "type": "address"
        },
        {
          "internalType": "string",
          "name": "location",
          "type": "string"
        },
        {
          "internalType": "string",
          "name": "documentHash",
          "type": "string"
        },
        {
          "internalType": "bool",
          "name": "verified",
          "type": "bool"
        }
      ],
      "stateMutability": "view",
      "type": "function"
    },
    {
      "inputs": [],
      "name": "owner",
      "outputs": [
        {
          "internalType": "address",
          "name": "",
          "type": "address"
        }
      ],
      "stateMutability": "view",
      "type": "function"
    },
    {
      "inputs": [
        {
          "internalType": "string",
          "name": "_location",
          "type": "string"
        },
        {
          "internalType": "string",
          "name": "_documentHash",
          "type": "string"
        }
      ],
      "name": "registerLand",
      "outputs": [],
      "stateMutability": "nonpayable",
      "type": "function"
    },
    {
      "inputs": [
        {
          "internalType": "address",
          "name": "_authority",
          "type": "address"
        }
      ],
      "name": "removeVerifiedAuthority",
      "outputs": [],
      "stateMutability": "nonpayable",
      "type": "function"
    },
    {
      "inputs": [],
      "name": "renounceOwnership",
      "outputs": [],
      "stateMutability": "nonpayable",
      "type": "function"
    },
    {
      "inputs": [
        {
          "internalType": "uint256",
          "name": "_landId",
          "type": "uint256"
        },
        {
          "internalType": "address",
          "name": "_newOwner",
          "type": "address"
        }
      ],
      "name": "transferLand",
      "outputs": [],
      "stateMutability": "nonpayable",
      "type": "function"
    },
    {
      "inputs": [
        {
          "internalType": "address",
          "name": "newOwner",
          "type": "address"
        }
      ],
      "name": "transferOwnership",
      "outputs": [],
      "stateMutability": "nonpayable",
      "type": "function"
    },
    {
      "inputs": [
        {
          "internalType": "address",
          "name": "",
          "type": "address"
        }
      ],
      "name": "verifiedAuthorities",
      "outputs": [
        {
          "internalType": "bool",
          "name": "",
          "type": "bool"
        }
      ],
      "stateMutability": "view",
      "type": "function"
    },
    {
      "inputs": [
        {
          "internalType": "uint256",
          "name": "_landId",
          "type": "uint256"
        }
      ],
      "name": "verifyLand",
      "outputs": [],
      "stateMutability": "nonpayable",
      "type": "function"
    }
  ],
  "bytecode": "0x60806040523480156200001157600080fd5b5033600073ffffffffffffffffffffffffffffffffffffffff168173ffffffffffffffffffffffffffffffffffffffff1603620000885760006040517f1e4fbdf70000000000000000000000000000000000000000000000000000000081526004016200007f9190620001a9565b60405180910390fd5b6200009981620000a060201b60201c565b50620001c6565b60008060009054906101000a900473ffffffffffffffffffffffffffffffffffffffff169050816000806101000a81548173ffffffffffffffffffffffffffffffffffffffff021916908373ffffffffffffffffffffffffffffffffffffffff1602179055508173ffffffffffffffffffffffffffffffffffffffff168173ffffffffffffffffffffffffffffffffffffffff167f8be0079c531659141344cd1fd0a4f28419497f9722a3daafe3b4186f6b6457e060405160405180910390a35050565b600073ffffffffffffffffffffffffffffffffffffffff82169050919050565b6000620001918262000164565b9050919050565b620001a38162000184565b82525050565b6000602082019050620001c0600083018462000198565b92915050565b6119d480620001d66000396000f3fe608060405234801561001057600080fd5b50600436106100b45760003560e01c8063c798ff7d11610071578063c798ff7d14610153578063c7b6e80a1461016f578063e261f1e51461019f578063f2fde38b146101d3578063f9c43bdf146101ef578063fe0cb7dc1461020b576100b4565b806324642681146100b957806324e10994146100d5578063622ccccc146100f1578063715018a61461010d5780638da5cb5b146101175780639e29ce1814610135575b600080fd5b6100d360048036038101906100ce9190610fd5565b61023f565b005b6100ef60048036038101906100ea91906110ab565b6103ba565b005b61010b600480360381019061010691906110ab565b61041d565b005b610115610480565b005b61011f610494565b60405161012c91906110e7565b60405180910390f35b61013d6104bd565b60405161014a919061111b565b60405180910390f35b61016d60048036038101906101689190611162565b6104c3565b005b610189600480360381019061018491906110ab565b61074f565b60405161019691906111bd565b60405180910390f35b6101b960048036038101906101b491906111d8565b61076f565b6040516101ca959493929190611284565b60405180910390f35b6101ed60048036038101906101e891906110ab565b6108e2565b005b610209600480360381019061020491906111d8565b610968565b005b610225600480360381019061022091906111d8565b610ab8565b6040516102369594939291906113a3565b60405180910390f35b600160008154809291906102529061143a565b9190505550600060026000600154815260200190815260200160002090506001548160000181905550338160010160006101000a81548173ffffffffffffffffffffffffffffffffffffffff021916908373ffffffffffffffffffffffffffffffffffffffff160217905550828160020190816102cf919061168e565b50818160030190816102e1919061168e565b5060008160040160006101000a81548160ff02191690831515021790555080600501339080600181540180825580915050600190039060005260206000200160009091909190916101000a81548173ffffffffffffffffffffffffffffffffffffffff021916908373ffffffffffffffffffffffffffffffffffffffff1602179055503373ffffffffffffffffffffffffffffffffffffffff166001547f9c4ad74928fec1ee86181680df0e76bf575b79ea2a0347f7ed270884bdd26ad7856040516103ad9190611760565b60405180910390a3505050565b6103c2610d28565b6000600360008373ffffffffffffffffffffffffffffffffffffffff1673ffffffffffffffffffffffffffffffffffffffff16815260200190815260200160002060006101000a81548160ff02191690831515021790555050565b610425610d28565b6001600360008373ffffffffffffffffffffffffffffffffffffffff1673ffffffffffffffffffffffffffffffffffffffff16815260200190815260200160002060006101000a81548160ff02191690831515021790555050565b610488610d28565b6104926000610daf565b565b60008060009054906101000a900473ffffffffffffffffffffffffffffffffffffffff16905090565b60015481565b813373ffffffffffffffffffffffffffffffffffffffff166002600083815260200190815260200160002060010160009054906101000a900473ffffffffffffffffffffffffffffffffffffffff1673ffffffffffffffffffffffffffffffffffffffff1614610568576040517f08c379a000000000000000000000000000000000000000000000000000000000815260040161055f906117ce565b60405180910390fd5b6002600084815260200190815260200160002060040160009054906101000a900460ff166105cb576040517f08c379a00000000000000000000000000000000000000000000000000000000081526004016105c29061183a565b60405180910390fd5b600073ffffffffffffffffffffffffffffffffffffffff168273ffffffffffffffffffffffffffffffffffffffff160361063a576040517f08c379a0000000000000000000000000000000000000000000000000000000008152600401610631906118a6565b60405180910390fd5b60026000848152602001908152602001600020600501829080600181540180825580915050600190039060005260206000200160009091909190916101000a81548173ffffffffffffffffffffffffffffffffffffffff021916908373ffffffffffffffffffffffffffffffffffffffff160217905550816002600085815260200190815260200160002060010160006101000a81548173ffffffffffffffffffffffffffffffffffffffff021916908373ffffffffffffffffffffffffffffffffffffffff1602179055508173ffffffffffffffffffffffffffffffffffffffff16837fba8cc72bdfdb4f3e2281c3f17f6be90c470f76dd1106321a2928859835874bc260405160405180910390a3505050565b60036020528060005260406000206000915054906101000a900460ff1681565b60026020528060005260406000206000915090508060000154908060010160009054906101000a900473ffffffffffffffffffffffffffffffffffffffff16908060020180546107be906114b1565b80601f01602080910402602001604051908101604052809291908181526020018280546107ea906114b1565b80156108375780601f1061080c57610100808354040283529160200191610837565b820191906000526020600020905b81548152906001019060200180831161081a57829003601f168201915b50505050509080600301805461084c906114b1565b80601f0160208091040260200160405190810160405280929190818152602001828054610878906114b1565b80156108c55780601f1061089a576101008083540402835291602001916108c5565b820191906000526020600020905b8154815290600101906020018083116108a857829003601f168201915b5050505050908060040160009054906101000a900460ff16905085565b6108ea610d28565b600073ffffffffffffffffffffffffffffffffffffffff168173ffffffffffffffffffffffffffffffffffffffff160361095c5760006040517f1e4fbdf700000000000000000000000000000000000000000000000000000000815260040161095391906110e7565b60405180910390fd5b61096581610daf565b50565b600360003373ffffffffffffffffffffffffffffffffffffffff1673ffffffffffffffffffffffffffffffffffffffff16815260200190815260200160002060009054906101000a900460ff166109f4576040517f08c379a00000000000000000000000000000000000000000000000000000000081526004016109eb90611912565b60405180910390fd5b6000600260008381526020019081526020016000206000015403610a4d576040517f08c379a0000000000000000000000000000000000000000000000000000000008152600401610a449061197e565b60405180910390fd5b60016002600083815260200190815260200160002060040160006101000a81548160ff021916908315150217905550807f844a797c747d332e0cacaf14bbcc3c6b2f03b904c69b7ded23f3115305a390896001604051610aad91906111bd565b60405180910390a250565b6000606080600060606000600260008881526020019081526020016000206000015403610b1a576040517f08c379a0000000000000000000000000000000000000000000000000000000008152600401610b119061197e565b60405180910390fd5b60006002600088815260200190815260200160002090508060010160009054906101000a900473ffffffffffffffffffffffffffffffffffffffff1681600201826003018360040160009054906101000a900460ff1684600501838054610b80906114b1565b80601f0160208091040260200160405190810160405280929190818152602001828054610bac906114b1565b8015610bf95780601f10610bce57610100808354040283529160200191610bf9565b820191906000526020600020905b815481529060010190602001808311610bdc57829003601f168201915b50505050509350828054610c0c906114b1565b80601f0160208091040260200160405190810160405280929190818152602001828054610c38906114b1565b8015610c855780601f10610c5a57610100808354040283529160200191610c85565b820191906000526020600020905b815481529060010190602001808311610c6857829003601f168201915b5050505050925080805480602002602001604051908101604052809291908181526020018280548015610d0d57602002820191906000526020600020905b8160009054906101000a900473ffffffffffffffffffffffffffffffffffffffff1673ffffffffffffffffffffffffffffffffffffffff1681526020019060010190808311610cc3575b50505050509050955095509550955095505091939590929450565b610d30610e73565b73ffffffffffffffffffffffffffffffffffffffff16610d4e610494565b73ffffffffffffffffffffffffffffffffffffffff1614610dad57610d71610e73565b6040517f118cdaa7000000000000000000000000000000000000000000000000000000008152600401610da491906110e7565b60405180910390fd5b565b60008060009054906101000a900473ffffffffffffffffffffffffffffffffffffffff169050816000806101000a81548173ffffffffffffffffffffffffffffffffffffffff021916908373ffffffffffffffffffffffffffffffffffffffff1602179055508173ffffffffffffffffffffffffffffffffffffffff168173ffffffffffffffffffffffffffffffffffffffff167f8be0079c531659141344cd1fd0a4f28419497f9722a3daafe3b4186f6b6457e060405160405180910390a35050565b600033905090565b6000604051905090565b600080fd5b600080fd5b600080fd5b600080fd5b6000601f19601f8301169050919050565b7f4e487b7100000000000000000000000000000000000000000000000000000000600052604160045260246000fd5b610ee282610e99565b810181811067ffffffffffffffff82111715610f0157610f00610eaa565b5b80604052505050565b6000610f14610e7b565b9050610f208282610ed9565b919050565b600067ffffffffffffffff821115610f4057610f3f610eaa565b5b610f4982610e99565b9050602081019050919050565b82818337600083830152505050565b6000610f78610f7384610f25565b610f0a565b905082815260208101848484011115610f9457610f93610e94565b5b610f9f848285610f56565b509392505050565b600082601f830112610fbc57610fbb610e8f565b5b8135610fcc848260208601610f65565b91505092915050565b60008060408385031215610fec57610feb610e85565b5b600083013567ffffffffffffffff81111561100a57611009610e8a565b5b61101685828601610fa7565b925050602083013567ffffffffffffffff81111561103757611036610e8a565b5b61104385828601610fa7565b9150509250929050565b600073ffffffffffffffffffffffffffffffffffffffff82169050919050565b60006110788261104d565b9050919050565b6110888161106d565b811461109357600080fd5b50565b6000813590506110a58161107f565b92915050565b6000602082840312156110c1576110c0610e85565b5b60006110cf84828501611096565b91505092915050565b6110e18161106d565b82525050565b60006020820190506110fc60008301846110d8565b92915050565b6000819050919050565b61111581611102565b82525050565b6000602082019050611130600083018461110c565b92915050565b61113f81611102565b811461114a57600080fd5b50565b60008135905061115c81611136565b92915050565b6000806040838503121561117957611178610e85565b5b60006111878582860161114d565b925050602061119885828601611096565b9150509250929050565b60008115159050919050565b6111b7816111a2565b82525050565b60006020820190506111d260008301846111ae565b92915050565b6000602082840312156111ee576111ed610e85565b5b60006111fc8482850161114d565b91505092915050565b600081519050919050565b600082825260208201905092915050565b60005b8381101561123f578082015181840152602081019050611224565b60008484015250505050565b600061125682611205565b6112608185611210565b9350611270818560208601611221565b61127981610e99565b840191505092915050565b600060a082019050611299600083018861110c565b6112a660208301876110d8565b81810360408301526112b8818661124b565b905081810360608301526112cc818561124b565b90506112db60808301846111ae565b9695505050505050565b600081519050919050565b600082825260208201905092915050565b6000819050602082019050919050565b61131a8161106d565b82525050565b600061132c8383611311565b60208301905092915050565b6000602082019050919050565b6000611350826112e5565b61135a81856112f0565b935061136583611301565b8060005b8381101561139657815161137d8882611320565b975061138883611338565b925050600181019050611369565b5085935050505092915050565b600060a0820190506113b860008301886110d8565b81810360208301526113ca818761124b565b905081810360408301526113de818661124b565b90506113ed60608301856111ae565b81810360808301526113ff8184611345565b90509695505050505050565b7f4e487b7100000000000000000000000000000000000000000000000000000000600052601160045260246000fd5b600061144582611102565b91507fffffffffffffffffffffffffffffffffffffffffffffffffffffffffffffffff82036114775761147661140b565b5b600182019050919050565b7f4e487b7100000000000000000000000000000000000000000000000000000000600052602260045260246000fd5b600060028204905060018216806114c957607f821691505b6020821081036114dc576114db611482565b5b50919050565b60008190508160005260206000209050919050565b60006020601f8301049050919050565b600082821b905092915050565b6000600883026115447fffffffffffffffffffffffffffffffffffffffffffffffffffffffffffffffff82611507565b61154e8683611507565b95508019841693508086168417925050509392505050565b6000819050919050565b600061158b61158661158184611102565b611566565b611102565b9050919050565b6000819050919050565b6115a583611570565b6115b96115b182611592565b848454611514565b825550505050565b600090565b6115ce6115c1565b6115d981848461159c565b505050565b5b818110156115fd576115f26000826115c6565b6001810190506115df565b5050565b601f82111561164257611613816114e2565b61161c846114f7565b8101602085101561162b578190505b61163f611637856114f7565b8301826115de565b50505b505050565b600082821c905092915050565b600061166560001984600802611647565b1980831691505092915050565b600061167e8383611654565b9150826002028217905092915050565b61169782611205565b67ffffffffffffffff8111156116b0576116af610eaa565b5b6116ba82546114b1565b6116c5828285611601565b600060209050601f8311600181146116f857600084156116e6578287015190505b6116f08582611672565b865550611758565b601f198416611706866114e2565b60005b8281101561172e57848901518255600182019150602085019450602081019050611709565b8683101561174b5784890151611747601f891682611654565b8355505b6001600288020188555050505b505050505050565b6000602082019050818103600083015261177a818461124b565b905092915050565b7f4e6f7420746865206c616e646f776e6572000000000000000000000000000000600082015250565b60006117b8601183611210565b91506117c382611782565b602082019050919050565b600060208201905081810360008301526117e7816117ab565b9050919050565b7f4c616e64206d7573742062652076657269666965640000000000000000000000600082015250565b6000611824601583611210565b915061182f826117ee565b602082019050919050565b6000602082019050818103600083015261185381611817565b9050919050565b7f496e76616c6964206e6577206f776e6572000000000000000000000000000000600082015250565b6000611890601183611210565b915061189b8261185a565b602082019050919050565b600060208201905081810360008301526118bf81611883565b9050919050565b7f4e6f7420616e20617574686f72697a656420656e746974790000000000000000600082015250565b60006118fc601883611210565b9150611907826118c6565b602082019050919050565b6000602082019050818103600083015261192b816118ef565b9050919050565b7f4c616e6420646f6573206e6f7420657869737400000000000000000000000000600082015250565b6000611968601383611210565b915061197382611932565b602082019050919050565b600060208201905081810360008301526119978161195b565b905091905056fea2646970667358221220f0aab5867c14770cabc3798ecf7bb989bab4c01f93102671f45a86d12fbe856464736f6c63430008140033",
  "linkReferences": {},
  "deployedLinkReferences": {}
}