{
  "_format": "hh-sol-artifact-1",
  "contractName": "LandRegistry",
  "sourceName": "contracts/LandRegistry.sol",
  "abi": [
    {
      "inputs": [],
      "stateMutability": "nonpayable",
      "type": "constructor"
    },
    {
      "inputs": [
        {
          "internalType": "address",
          "name": "owner",
          "type": "address"
        }
      ],
      "name": "OwnableInvalidOwner",
      "type": "error"
    },
    {
      "inputs": [
        {
          "internalType": "address",
          "name": "account",
          "type": "address"
        }
      ],
      "name": "OwnableUnauthorizedAccount",
      "type": "error"
    },
    {
      "anonymous": false,
      "inputs": [
        {
          "indexed": true,
          "internalType": "uint256",
          "name": "landId",
          "type": "uint256"
        },
        {
          "indexed": false,
          "internalType": "bool",
          "name": "verified",
          "type": "bool"
        }
      ],
      "name": "DocumentVerified",
      "type": "event"
    },
    {
      "anonymous": false,
      "inputs": [
        {
          "indexed": true,
          "internalType": "uint256",
          "name": "landId",
          "type": "uint256"
        },
        {
          "indexed": true,
          "internalType": "address",
          "name": "owner",
          "type": "address"
        },
        {
          "indexed": false,
          "internalType": "string",
          "name": "location",
          "type": "string"
        }
      ],
      "name": "LandRegistered",
      "type": "event"
    },
    {
      "anonymous": false,
      "inputs": [
        {
          "indexed": true,
          "internalType": "uint256",
          "name": "landId",
          "type": "uint256"
        },
        {
          "indexed": false,
          "internalType": "bool",
          "name": "verified",
          "type": "bool"
        }
      ],
      "name": "LandVerified",
      "type": "event"
    },
    {
      "anonymous": false,
      "inputs": [
        {
          "indexed": true,
          "internalType": "address",
          "name": "previousOwner",
          "type": "address"
        },
        {
          "indexed": true,
          "internalType": "address",
          "name": "newOwner",
          "type": "address"
        }
      ],
      "name": "OwnershipTransferred",
      "type": "event"
    },
    {
      "anonymous": false,
      "inputs": [
        {
          "indexed": true,
          "internalType": "uint256",
          "name": "landId",
          "type": "uint256"
        },
        {
          "indexed": true,
          "internalType": "address",
          "name": "newOwner",
          "type": "address"
        }
      ],
      "name": "OwnershipTransferred",
      "type": "event"
    },
    {
      "inputs": [
        {
          "internalType": "address",
          "name": "_authority",
          "type": "address"
        }
      ],
      "name": "addVerifiedAuthority",
      "outputs": [],
      "stateMutability": "nonpayable",
      "type": "function"
    },
    {
      "inputs": [
        {
          "internalType": "uint256",
          "name": "_landId",
          "type": "uint256"
        }
      ],
      "name": "getLandDetails",
      "outputs": [
        {
          "internalType": "address",
          "name": "owner",
          "type": "address"
        },
        {
          "internalType": "string",
          "name": "location",
          "type": "string"
        },
        {
          "internalType": "string",
          "name": "documentHash",
          "type": "string"
        },
        {
          "internalType": "bool",
          "name": "verified",
          "type": "bool"
        },
        {
          "internalType": "bool",
          "name": "documentVerified",
          "type": "bool"
        },
        {
          "internalType": "address[]",
          "name": "ownershipHistory",
          "type": "address[]"
        }
      ],
      "stateMutability": "view",
      "type": "function"
    },
    {
      "inputs": [],
      "name": "landCounter",
      "outputs": [
        {
          "internalType": "uint256",
          "name": "",
          "type": "uint256"
        }
      ],
      "stateMutability": "view",
      "type": "function"
    },
    {
      "inputs": [
        {
          "internalType": "uint256",
          "name": "",
          "type": "uint256"
        }
      ],
      "name": "lands",
      "outputs": [
        {
          "internalType": "uint256",
          "name": "id",
          "type": "uint256"
        },
        {
          "internalType": "address",
          "name": "owner",
          "type": "address"
        },
        {
          "internalType": "string",
          "name": "location",
          "type": "string"
        },
        {
          "internalType": "string",
          "name": "documentHash",
          "type": "string"
        },
        {
          "internalType": "bool",
          "name": "verified",
          "type": "bool"
        },
        {
          "internalType": "bool",
          "name": "documentVerified",
          "type": "bool"
        }
      ],
      "stateMutability": "view",
      "type": "function"
    },
    {
      "inputs": [],
      "name": "owner",
      "outputs": [
        {
          "internalType": "address",
          "name": "",
          "type": "address"
        }
      ],
      "stateMutability": "view",
      "type": "function"
    },
    {
      "inputs": [
        {
          "internalType": "string",
          "name": "_location",
          "type": "string"
        },
        {
          "internalType": "string",
          "name": "_documentHash",
          "type": "string"
        }
      ],
      "name": "registerLand",
      "outputs": [],
      "stateMutability": "nonpayable",
      "type": "function"
    },
    {
      "inputs": [
        {
          "internalType": "address",
          "name": "_authority",
          "type": "address"
        }
      ],
      "name": "removeVerifiedAuthority",
      "outputs": [],
      "stateMutability": "nonpayable",
      "type": "function"
    },
    {
      "inputs": [],
      "name": "renounceOwnership",
      "outputs": [],
      "stateMutability": "nonpayable",
      "type": "function"
    },
    {
      "inputs": [
        {
          "internalType": "uint256",
          "name": "_landId",
          "type": "uint256"
        },
        {
          "internalType": "address",
          "name": "_newOwner",
          "type": "address"
        }
      ],
      "name": "transferLand",
      "outputs": [],
      "stateMutability": "nonpayable",
      "type": "function"
    },
    {
      "inputs": [
        {
          "internalType": "address",
          "name": "newOwner",
          "type": "address"
        }
      ],
      "name": "transferOwnership",
      "outputs": [],
      "stateMutability": "nonpayable",
      "type": "function"
    },
    {
      "inputs": [
        {
          "internalType": "address",
          "name": "",
          "type": "address"
        }
      ],
      "name": "verifiedAuthorities",
      "outputs": [
        {
          "internalType": "bool",
          "name": "",
          "type": "bool"
        }
      ],
      "stateMutability": "view",
      "type": "function"
    },
    {
      "inputs": [
        {
          "internalType": "uint256",
          "name": "_landId",
          "type": "uint256"
        }
      ],
      "name": "verifyDocument",
      "outputs": [],
      "stateMutability": "nonpayable",
      "type": "function"
    },
    {
      "inputs": [
        {
          "internalType": "uint256",
          "name": "_landId",
          "type": "uint256"
        }
      ],
      "name": "verifyLand",
      "outputs": [],
      "stateMutability": "nonpayable",
      "type": "function"
    }
  ],
  "bytecode": "0x60806040523480156200001157600080fd5b5033600073ffffffffffffffffffffffffffffffffffffffff168173ffffffffffffffffffffffffffffffffffffffff1603620000885760006040517f1e4fbdf70000000000000000000000000000000000000000000000000000000081526004016200007f9190620001a9565b60405180910390fd5b6200009981620000a060201b60201c565b50620001c6565b60008060009054906101000a900473ffffffffffffffffffffffffffffffffffffffff169050816000806101000a81548173ffffffffffffffffffffffffffffffffffffffff021916908373ffffffffffffffffffffffffffffffffffffffff1602179055508173ffffffffffffffffffffffffffffffffffffffff168173ffffffffffffffffffffffffffffffffffffffff167f8be0079c531659141344cd1fd0a4f28419497f9722a3daafe3b4186f6b6457e060405160405180910390a35050565b600073ffffffffffffffffffffffffffffffffffffffff82169050919050565b6000620001918262000164565b9050919050565b620001a38162000184565b82525050565b6000602082019050620001c0600083018462000198565b92915050565b611c8d80620001d66000396000f3fe608060405234801561001057600080fd5b50600436106100cf5760003560e01c80639e29ce181161008c578063e261f1e511610066578063e261f1e5146101d6578063f2fde38b1461020b578063f9c43bdf14610227578063fe0cb7dc14610243576100cf565b80639e29ce181461016c578063c798ff7d1461018a578063c7b6e80a146101a6576100cf565b806324642681146100d457806324e10994146100f0578063622ccccc1461010c5780636dda61d914610128578063715018a6146101445780638da5cb5b1461014e575b600080fd5b6100ee60048036038101906100e99190611206565b610278565b005b61010a600480360381019061010591906112dc565b610410565b005b610126600480360381019061012191906112dc565b610473565b005b610142600480360381019061013d919061133f565b6104d6565b005b61014c610626565b005b61015661063a565b604051610163919061137b565b60405180910390f35b610174610663565b60405161018191906113a5565b60405180910390f35b6101a4600480360381019061019f91906113c0565b610669565b005b6101c060048036038101906101bb91906112dc565b6108f5565b6040516101cd919061141b565b60405180910390f35b6101f060048036038101906101eb919061133f565b610915565b604051610202969594939291906114b5565b60405180910390f35b610225600480360381019061022091906112dc565b610a9b565b005b610241600480360381019061023c919061133f565b610b21565b005b61025d6004803603810190610258919061133f565b610cd4565b60405161026f969594939291906115e2565b60405180910390f35b6001600081548092919061028b90611687565b9190505550600060026000600154815260200190815260200160002090506001548160000181905550338160010160006101000a81548173ffffffffffffffffffffffffffffffffffffffff021916908373ffffffffffffffffffffffffffffffffffffffff1602179055508281600201908161030891906118db565b508181600301908161031a91906118db565b5060008160040160006101000a81548160ff02191690831515021790555060008160040160016101000a81548160ff02191690831515021790555080600501339080600181540180825580915050600190039060005260206000200160009091909190916101000a81548173ffffffffffffffffffffffffffffffffffffffff021916908373ffffffffffffffffffffffffffffffffffffffff1602179055503373ffffffffffffffffffffffffffffffffffffffff166001547f9c4ad74928fec1ee86181680df0e76bf575b79ea2a0347f7ed270884bdd26ad78560405161040391906119ad565b60405180910390a3505050565b610418610f59565b6000600360008373ffffffffffffffffffffffffffffffffffffffff1673ffffffffffffffffffffffffffffffffffffffff16815260200190815260200160002060006101000a81548160ff02191690831515021790555050565b61047b610f59565b6001600360008373ffffffffffffffffffffffffffffffffffffffff1673ffffffffffffffffffffffffffffffffffffffff16815260200190815260200160002060006101000a81548160ff02191690831515021790555050565b600360003373ffffffffffffffffffffffffffffffffffffffff1673ffffffffffffffffffffffffffffffffffffffff16815260200190815260200160002060009054906101000a900460ff16610562576040517f08c379a000000000000000000000000000000000000000000000000000000000815260040161055990611a1b565b60405180910390fd5b60006002600083815260200190815260200160002060000154036105bb576040517f08c379a00000000000000000000000000000000000000000000000000000000081526004016105b290611a87565b60405180910390fd5b60016002600083815260200190815260200160002060040160016101000a81548160ff021916908315150217905550807f127d441409d5afcb9bc12856ea146d1727993950e8ffa21bdcf289313eaffaf4600160405161061b919061141b565b60405180910390a250565b61062e610f59565b6106386000610fe0565b565b60008060009054906101000a900473ffffffffffffffffffffffffffffffffffffffff16905090565b60015481565b813373ffffffffffffffffffffffffffffffffffffffff166002600083815260200190815260200160002060010160009054906101000a900473ffffffffffffffffffffffffffffffffffffffff1673ffffffffffffffffffffffffffffffffffffffff161461070e576040517f08c379a000000000000000000000000000000000000000000000000000000000815260040161070590611af3565b60405180910390fd5b6002600084815260200190815260200160002060040160009054906101000a900460ff16610771576040517f08c379a000000000000000000000000000000000000000000000000000000000815260040161076890611b5f565b60405180910390fd5b600073ffffffffffffffffffffffffffffffffffffffff168273ffffffffffffffffffffffffffffffffffffffff16036107e0576040517f08c379a00000000000000000000000000000000000000000000000000000000081526004016107d790611bcb565b60405180910390fd5b60026000848152602001908152602001600020600501829080600181540180825580915050600190039060005260206000200160009091909190916101000a81548173ffffffffffffffffffffffffffffffffffffffff021916908373ffffffffffffffffffffffffffffffffffffffff160217905550816002600085815260200190815260200160002060010160006101000a81548173ffffffffffffffffffffffffffffffffffffffff021916908373ffffffffffffffffffffffffffffffffffffffff1602179055508173ffffffffffffffffffffffffffffffffffffffff16837fba8cc72bdfdb4f3e2281c3f17f6be90c470f76dd1106321a2928859835874bc260405160405180910390a3505050565b60036020528060005260406000206000915054906101000a900460ff1681565b60026020528060005260406000206000915090508060000154908060010160009054906101000a900473ffffffffffffffffffffffffffffffffffffffff1690806002018054610964906116fe565b80601f0160208091040260200160405190810160405280929190818152602001828054610990906116fe565b80156109dd5780601f106109b2576101008083540402835291602001916109dd565b820191906000526020600020905b8154815290600101906020018083116109c057829003601f168201915b5050505050908060030180546109f2906116fe565b80601f0160208091040260200160405190810160405280929190818152602001828054610a1e906116fe565b8015610a6b5780601f10610a4057610100808354040283529160200191610a6b565b820191906000526020600020905b815481529060010190602001808311610a4e57829003601f168201915b5050505050908060040160009054906101000a900460ff16908060040160019054906101000a900460ff16905086565b610aa3610f59565b600073ffffffffffffffffffffffffffffffffffffffff168173ffffffffffffffffffffffffffffffffffffffff1603610b155760006040517f1e4fbdf7000000000000000000000000000000000000000000000000000000008152600401610b0c919061137b565b60405180910390fd5b610b1e81610fe0565b50565b600360003373ffffffffffffffffffffffffffffffffffffffff1673ffffffffffffffffffffffffffffffffffffffff16815260200190815260200160002060009054906101000a900460ff16610bad576040517f08c379a0000000000000000000000000000000000000000000000000000000008152600401610ba490611a1b565b60405180910390fd5b6000600260008381526020019081526020016000206000015403610c06576040517f08c379a0000000000000000000000000000000000000000000000000000000008152600401610bfd90611a87565b60405180910390fd5b6002600082815260200190815260200160002060040160019054906101000a900460ff16610c69576040517f08c379a0000000000000000000000000000000000000000000000000000000008152600401610c6090611c37565b60405180910390fd5b60016002600083815260200190815260200160002060040160006101000a81548160ff021916908315150217905550807f844a797c747d332e0cacaf14bbcc3c6b2f03b904c69b7ded23f3115305a390896001604051610cc9919061141b565b60405180910390a250565b600060608060008060606000600260008981526020019081526020016000206000015403610d37576040517f08c379a0000000000000000000000000000000000000000000000000000000008152600401610d2e90611a87565b60405180910390fd5b60006002600089815260200190815260200160002090508060010160009054906101000a900473ffffffffffffffffffffffffffffffffffffffff1681600201826003018360040160009054906101000a900460ff168460040160019054906101000a900460ff1685600501848054610daf906116fe565b80601f0160208091040260200160405190810160405280929190818152602001828054610ddb906116fe565b8015610e285780601f10610dfd57610100808354040283529160200191610e28565b820191906000526020600020905b815481529060010190602001808311610e0b57829003601f168201915b50505050509450838054610e3b906116fe565b80601f0160208091040260200160405190810160405280929190818152602001828054610e67906116fe565b8015610eb45780601f10610e8957610100808354040283529160200191610eb4565b820191906000526020600020905b815481529060010190602001808311610e9757829003601f168201915b5050505050935080805480602002602001604051908101604052809291908181526020018280548015610f3c57602002820191906000526020600020905b8160009054906101000a900473ffffffffffffffffffffffffffffffffffffffff1673ffffffffffffffffffffffffffffffffffffffff1681526020019060010190808311610ef2575b505050505090509650965096509650965096505091939550919395565b610f616110a4565b73ffffffffffffffffffffffffffffffffffffffff16610f7f61063a565b73ffffffffffffffffffffffffffffffffffffffff1614610fde57610fa26110a4565b6040517f118cdaa7000000000000000000000000000000000000000000000000000000008152600401610fd5919061137b565b60405180910390fd5b565b60008060009054906101000a900473ffffffffffffffffffffffffffffffffffffffff169050816000806101000a81548173ffffffffffffffffffffffffffffffffffffffff021916908373ffffffffffffffffffffffffffffffffffffffff1602179055508173ffffffffffffffffffffffffffffffffffffffff168173ffffffffffffffffffffffffffffffffffffffff167f8be0079c531659141344cd1fd0a4f28419497f9722a3daafe3b4186f6b6457e060405160405180910390a35050565b600033905090565b6000604051905090565b600080fd5b600080fd5b600080fd5b600080fd5b6000601f19601f8301169050919050565b7f4e487b7100000000000000000000000000000000000000000000000000000000600052604160045260246000fd5b611113826110ca565b810181811067ffffffffffffffff82111715611132576111316110db565b5b80604052505050565b60006111456110ac565b9050611151828261110a565b919050565b600067ffffffffffffffff821115611171576111706110db565b5b61117a826110ca565b9050602081019050919050565b82818337600083830152505050565b60006111a96111a484611156565b61113b565b9050828152602081018484840111156111c5576111c46110c5565b5b6111d0848285611187565b509392505050565b600082601f8301126111ed576111ec6110c0565b5b81356111fd848260208601611196565b91505092915050565b6000806040838503121561121d5761121c6110b6565b5b600083013567ffffffffffffffff81111561123b5761123a6110bb565b5b611247858286016111d8565b925050602083013567ffffffffffffffff811115611268576112676110bb565b5b611274858286016111d8565b9150509250929050565b600073ffffffffffffffffffffffffffffffffffffffff82169050919050565b60006112a98261127e565b9050919050565b6112b98161129e565b81146112c457600080fd5b50565b6000813590506112d6816112b0565b92915050565b6000602082840312156112f2576112f16110b6565b5b6000611300848285016112c7565b91505092915050565b6000819050919050565b61131c81611309565b811461132757600080fd5b50565b60008135905061133981611313565b92915050565b600060208284031215611355576113546110b6565b5b60006113638482850161132a565b91505092915050565b6113758161129e565b82525050565b6000602082019050611390600083018461136c565b92915050565b61139f81611309565b82525050565b60006020820190506113ba6000830184611396565b92915050565b600080604083850312156113d7576113d66110b6565b5b60006113e58582860161132a565b92505060206113f6858286016112c7565b9150509250929050565b60008115159050919050565b61141581611400565b82525050565b6000602082019050611430600083018461140c565b92915050565b600081519050919050565b600082825260208201905092915050565b60005b83811015611470578082015181840152602081019050611455565b60008484015250505050565b600061148782611436565b6114918185611441565b93506114a1818560208601611452565b6114aa816110ca565b840191505092915050565b600060c0820190506114ca6000830189611396565b6114d7602083018861136c565b81810360408301526114e9818761147c565b905081810360608301526114fd818661147c565b905061150c608083018561140c565b61151960a083018461140c565b979650505050505050565b600081519050919050565b600082825260208201905092915050565b6000819050602082019050919050565b6115598161129e565b82525050565b600061156b8383611550565b60208301905092915050565b6000602082019050919050565b600061158f82611524565b611599818561152f565b93506115a483611540565b8060005b838110156115d55781516115bc888261155f565b97506115c783611577565b9250506001810190506115a8565b5085935050505092915050565b600060c0820190506115f7600083018961136c565b8181036020830152611609818861147c565b9050818103604083015261161d818761147c565b905061162c606083018661140c565b611639608083018561140c565b81810360a083015261164b8184611584565b9050979650505050505050565b7f4e487b7100000000000000000000000000000000000000000000000000000000600052601160045260246000fd5b600061169282611309565b91507fffffffffffffffffffffffffffffffffffffffffffffffffffffffffffffffff82036116c4576116c3611658565b5b600182019050919050565b7f4e487b7100000000000000000000000000000000000000000000000000000000600052602260045260246000fd5b6000600282049050600182168061171657607f821691505b602082108103611729576117286116cf565b5b50919050565b60008190508160005260206000209050919050565b60006020601f8301049050919050565b600082821b905092915050565b6000600883026117917fffffffffffffffffffffffffffffffffffffffffffffffffffffffffffffffff82611754565b61179b8683611754565b95508019841693508086168417925050509392505050565b6000819050919050565b60006117d86117d36117ce84611309565b6117b3565b611309565b9050919050565b6000819050919050565b6117f2836117bd565b6118066117fe826117df565b848454611761565b825550505050565b600090565b61181b61180e565b6118268184846117e9565b505050565b5b8181101561184a5761183f600082611813565b60018101905061182c565b5050565b601f82111561188f576118608161172f565b61186984611744565b81016020851015611878578190505b61188c61188485611744565b83018261182b565b50505b505050565b600082821c905092915050565b60006118b260001984600802611894565b1980831691505092915050565b60006118cb83836118a1565b9150826002028217905092915050565b6118e482611436565b67ffffffffffffffff8111156118fd576118fc6110db565b5b61190782546116fe565b61191282828561184e565b600060209050601f8311600181146119455760008415611933578287015190505b61193d85826118bf565b8655506119a5565b601f1984166119538661172f565b60005b8281101561197b57848901518255600182019150602085019450602081019050611956565b868310156119985784890151611994601f8916826118a1565b8355505b6001600288020188555050505b505050505050565b600060208201905081810360008301526119c7818461147c565b905092915050565b7f204e6f7420616e20617574686f72697a656420656e7469747900000000000000600082015250565b6000611a05601983611441565b9150611a10826119cf565b602082019050919050565b60006020820190508181036000830152611a34816119f8565b9050919050565b7f204c616e6420646f6573206e6f74206578697374000000000000000000000000600082015250565b6000611a71601483611441565b9150611a7c82611a3b565b602082019050919050565b60006020820190508181036000830152611aa081611a64565b9050919050565b7f204e6f7420746865206c616e646f776e65720000000000000000000000000000600082015250565b6000611add601283611441565b9150611ae882611aa7565b602082019050919050565b60006020820190508181036000830152611b0c81611ad0565b9050919050565b7f204c616e64206d75737420626520766572696669656400000000000000000000600082015250565b6000611b49601683611441565b9150611b5482611b13565b602082019050919050565b60006020820190508181036000830152611b7881611b3c565b9050919050565b7f496e76616c6964206e6577206f776e6572000000000000000000000000000000600082015250565b6000611bb5601183611441565b9150611bc082611b7f565b602082019050919050565b60006020820190508181036000830152611be481611ba8565b9050919050565b7f20446f63756d656e74206d757374206265207665726966696564206669727374600082015250565b6000611c21602083611441565b9150611c2c82611beb565b602082019050919050565b60006020820190508181036000830152611c5081611c14565b905091905056fea2646970667358221220be0161c5ae74ac4411b4c2142d8f5f0804f9dad79954b6c7c8a536834a77b49f64736f6c63430008140033",
  "linkReferences": {},
  "deployedLinkReferences": {}
}